:020000040800F2
:100000000000022005230008712200087722000862
:100010007D220008832200088922000800000000D9
:100020000000000000000000000000008F22000817
:100030009D22000800000000AB220008B922000841
:1000400055230008552300085523000855230008B0
:1000500055230008552300085523000855230008A0
:100060005523000855230008552300085523000890
:100070005523000855230008552300085523000880
:100080005523000855230008C52200085523000801
:100090005523000855230008552300085523000860
:1000A0005523000855230008552300085523000850
:1000B0005523000855230008552300085523000840
:1000C0005523000855230008552300085523000830
:1000D0005523000855230008552300085523000820
:1000E0005523000855230008552300085523000810
:1000F0005523000855230008552300085523000800
:1001000055230008552300085523000855230008EF
:1001100055230008552300085523000855230008DF
:1001200055230008552300085523000855230008CF
:1001300055230008000000000000000055230008BF
:1001400055230008552300085523000855230008AF
:10015000552300085523000855230008552300089F
:10016000552300085523000855230008552300088F
:1001700055230008552300085523000800000000FF
:1001800000000000552300080000000000000000EF
:10019000552300080000000000000000552300085F
:1001A00000000000000000000000000055230008CF
:1001B000552300085523000855230008552300083F
:0401C00055230008BB
:1001C40010B5054C237833B9044B13B10448AFF38D
:1001D40000800123237010BD1C00002000000000DB
:1001E4004857000808B5034B1BB103490348AFF354
:1001F400008008BD000000002000002048570008CF
:1002040081F0004102E000BF83F0004330B54FEAC3
:1002140041044FEA430594EA050F08BF90EA020F30
:100224001FBF54EA000C55EA020C7FEA645C7FEAC3
:10023400655C00F0E2804FEA5454D4EB5555B8BFE6
:100244006D420CDD2C4480EA020281EA030382EA57
:10025400000083EA010180EA020281EA0303362DE9
:1002640088BF30BD11F0004F4FEA01314FF4801CBC
:100274004CEA113102D0404261EB410113F0004FCE
:100284004FEA03334CEA133302D0524263EB430385
:1002940094EA050F00F0A780A4F10104D5F1200E23
:1002A4000DDB02FA0EFC22FA05F2801841F100017E
:1002B40003FA0EF2801843FA05F359410EE0A5F152
:1002C40020050EF1200E012A03FA0EFC28BF4CF083
:1002D400020C43FA05F3C01851EBE37101F0004539
:1002E40007D54FF0000EDCF1000C7EEB00006EEB46
:1002F4000101B1F5801F1BD3B1F5001F0CD34908D0
:100304005FEA30004FEA3C0C04F101044FEA445226
:1003140012F5800F80F09A80BCF1004F08BF5FEAAD
:10032400500C50F1000041EB045141EA050130BD8D
:100334005FEA4C0C404141EB0101013C28BFB1F59F
:10034400801FE9D291F0000F04BF01460020B1FAEA
:1003540081F308BF2033A3F10B03B3F120020CDABD
:100364000C3208DD02F1140CC2F10C0201FA0CF09B
:1003740021FA02F10CE002F11402D8BFC2F1200C00
:1003840001FA02F120FA0CFCDCBF41EA0C019040B6
:10039400E41AA2BF01EB0451294330BD6FEA0404FF
:1003A4001F3C1CDA0C340EDC04F11404C4F12002EA
:1003B40020FA04F001FA02F340EA030021FA04F3FC
:1003C40045EA030130BDC4F10C04C4F1200220FA53
:1003D40002F001FA04F340EA0300294630BD21FA91
:1003E40004F0294630BD94F0000F83F4801306BF57
:1003F40081F480110134013D4EE77FEA645C18BF4B
:100404007FEA655C29D094EA050F08BF90EA020FE1
:1004140005D054EA000C04BF1946104630BD91EAD9
:10042400030F1EBF0021002030BD5FEA545C05D1DC
:100434004000494128BF41F0004130BD14F580041B
:100444003CBF01F5801130BD01F0004545F0FE418F
:1004540041F470014FF0000030BD7FEA645C1ABFC4
:10046400194610467FEA655C1CBF0B46024650EAFB
:10047400013406BF52EA033591EA030F41F4002127
:1004840030BD00BF90F0000F04BF0021704730B5AD
:100494004FF4806404F132044FF000054FF0000182
:1004A40050E700BF90F0000F04BF0021704730B543
:1004B4004FF4806404F1320410F0004548BF404218
:1004C4004FF000013EE700BF42004FEAE2014FEA6D
:1004D40031014FEA02701FBF12F07F4393F07F4F48
:1004E40081F06051704732F07F4208BF704793F04B
:1004F4007F4F04BF41F40021704730B54FF460745E
:1005040001F0004521F000411CE700BF50EA010260
:1005140008BF704730B54FF000050AE050EA010209
:1005240008BF704730B511F0004502D5404261EB79
:1005340041014FF4806404F132045FEA915C3FF4BA
:10054400D8AE4FF003025FEADC0C18BF03325FEA57
:10055400DC0C18BF033202EBDC02C2F1200300FA08
:1005640003FC20FA02F001FA03FE40EA0E0021FA2D
:1005740002F11444BDE600BF70B54FF0FF0C4CF41B
:10058400E06C1CEA11541DBF1CEA135594EA0C0FCD
:1005940095EA0C0F00F0DEF82C4481EA030621EA08
:1005A4004C5123EA4C5350EA013518BF52EA033543
:1005B40041F4801143F4801338D0A0FB02CE4FF0F5
:1005C4000005E1FB02E506F00042E0FB03E54FF025
:1005D4000006E1FB03569CF0000F18BF4EF0010E1D
:1005E400A4F1FF04B6F5007F64F5407404D25FEA19
:1005F4004E0E6D4146EB060642EAC62141EA5551CC
:100604004FEAC52040EA5E504FEACE2EB4F1FD0C0D
:1006140088BFBCF5E06F1ED8BEF1004F08BF5FEA8B
:10062400500E50F1000041EB045170BD06F000463D
:1006340046EA010140EA020081EA0301B4EB5C04EA
:10064400C2BFD4EB0C0541EA045170BD41F48011E2
:100654004FF0000E013C00F3AB8014F1360FDEBF07
:10066400002001F0004170BDC4F10004203C35DAE3
:100674000C341BDC04F11404C4F1200500FA05F366
:1006840020FA04F001FA05F240EA020001F0004207
:1006940021F0004110EBD37021FA04F642EB06017D
:1006A4005EEA430E08BF20EAD37070BDC4F10C04A7
:1006B400C4F1200500FA04F320FA05F001FA04F26B
:1006C40040EA020001F0004110EBD37041F1000157
:1006D4005EEA430E08BF20EAD37070BDC4F1200562
:1006E40000FA05F24EEA020E20FA04F301FA05F2CA
:1006F40043EA020321FA04F001F0004121FA04F272
:1007040020EA020000EBD3705EEA430E08BF20EA41
:10071400D37070BD94F0000F0FD101F0004640007B
:1007240041EB010111F4801F08BF013CF7D041EAFD
:10073400060195F0000F18BF704703F00046520001
:1007440043EB030313F4801F08BF013DF7D043EAD2
:100754000603704794EA0C0F0CEA135518BF95EA88
:100764000C0F0CD050EA410618BF52EA4306D1D10F
:1007740081EA030101F000414FF0000070BD50EA2E
:10078400410606BF1046194652EA430619D094EAB8
:100794000C0F02D150EA013613D195EA0C0F05D1A2
:1007A40052EA03361CBF104619460AD181EA0301F6
:1007B40001F0004141F0FE4141F470014FF00000AE
:1007C40070BD41F0FE4141F4780170BD70B54FF049
:1007D400FF0C4CF4E06C1CEA11541DBF1CEA1355C9
:1007E40094EA0C0F95EA0C0F00F0A7F8A4EB0504AB
:1007F40081EA030E52EA03354FEA013100F08880A2
:100804004FEA03334FF0805545EA131343EA12636A
:100814004FEA022245EA111545EA10654FEA00261F
:100824000EF000419D4208BF964244F1FD0404F5D8
:10083400407402D25B084FEA3202B61A65EB030534
:100844005B084FEA32024FF480104FF4002CB6EBF1
:10085400020E75EB030E22BFB61A754640EA0C0071
:100864005B084FEA3202B6EB020E75EB030E22BFB1
:10087400B61A754640EA5C005B084FEA3202B6EBF2
:10088400020E75EB030E22BFB61A754640EA9C00B1
:100894005B084FEA3202B6EB020E75EB030E22BF81
:1008A400B61A754640EADC0055EA060E18D04FEA3F
:1008B400051545EA16754FEA06164FEAC30343EADF
:1008C40052734FEAC2025FEA1C1CC0D111F4801FAC
:1008D4000BD141EA00014FF000004FF0004CB6E7A5
:1008E40011F4801F04BF01430020B4F1FD0C88BF44
:1008F400BCF5E06F3FF6AFAEB5EB030C04BFB6EB4F
:10090400020C5FEA500C50F1000041EB045170BD41
:100914000EF0004E4EEA113114EB5C04C2BFD4EB6E
:100924000C0541EA045170BD41F480114FF0000EF2
:10093400013C90E645EA060E8DE60CEA135594EA6E
:100944000C0F08BF95EA0C0F3FF43BAF94EA0C0F71
:100954000AD150EA01347FF434AF95EA0C0F7FF4E6
:1009640025AF104619462CE795EA0C0F06D152EA3A
:1009740003353FF4FDAE1046194622E750EA41061E
:1009840018BF52EA43067FF4C5AE50EA41047FF42F
:100994000DAF52EA43057FF4EBAE12E74FEA410292
:1009A400B2F1E04324BFB3F5001CDCF1FE5C0DD9C9
:1009B40001F0004C4FEAC0024CEA5070B2F1004F13
:1009C40040EB830008BF20F00100704711F0804F16
:1009D40021D113F13872BCBF01F00040704741F4DB
:1009E40080114FEA5252C2F11802C2F1200C10FADF
:1009F4000CF320FA02F018BF40F001004FEAC123C3
:100A04004FEAD32303FA0CFC40EA0C0023FA02F366
:100A14004FEA4303CCE77FEA625307D150EA01333C
:100A24001EBF4FF0FE4040F44000704701F000400C
:100A340040F0FE4040F40000704700BF53B94AB98B
:100A4400002908BF00281CBF4FF0FF314FF0FF30D2
:100A540000F070B9ADF1080C6DE904CE00F006F8B1
:100A6400DDF804E0DDE9022304B070472DE9F04726
:100A7400089E0D4604460F46002B4AD18A429446EE
:100A840065D9B2FA82F343B102FA03FCC3F120023E
:100A94009F4020FA02F217439C404FEA1C4E1FFA73
:100AA4008CF5B7FBFEF1220C0EFB117742EA0742EC
:100AB40001FB05F090420AD91CEB020201F1FF3759
:100AC40080F01C81904240F2198102396244121A6A
:100AD400A4B2B2FBFEF00EFB102244EA024400FB77
:100AE40005F5A5420AD91CEB040400F1FF3280F09D
:100AF4000781A54240F204816444023840EA01407F
:100B0400641B00211EB1DC400023C6E90043BDE89C
:100B1400F0878B4208D9002E00F0ED800021C6E951
:100B240000050846BDE8F087B3FA83F1002949D1EE
:100B3400AB4202D3824200F2F880841A65EB0302CE
:100B440001201746002EE2D0C6E90047DFE702B9CC
:100B5400FFDEB2FA82F3002B40F090808A1A4FEA4B
:100B64001C471FFA8CFE0121B2FBF7F507FB152089
:100B7400220C42EA00420EFB05F0904208D91CEB1D
:100B8400020205F1FF3802D2904200F2CB804546C2
:100B9400121AA4B2B2FBF7F007FB102244EA024493
:100BA4000EFB00FEA64508D91CEB040400F1FF323D
:100BB40002D2A64500F2BB801046A4EB0E0440EA24
:100BC40005409FE7C1F120078B4022FA07FC4CEA5D
:100BD400030C05FA01F420FA07F3FD404FEA1C491F
:100BE4002343B5FBF9F81FFA8CFE09FB18551C0CBE
:100BF40044EA054408FB0EF5A54202FA01F200FAA4
:100C040001F00BD91CEB040408F1FF3A80F0888052
:100C1400A54240F28580A8F102086444641B9DB299
:100C2400B4FBF9F309FB134445EA044403FB0EFE49
:100C3400A64508D91CEB040403F1FF356CD2A64584
:100C44006AD9023B644443EA0843A3FB0295A4EB3C
:100C54000E04AC42C846AE4656D353D056B1B0EBA0
:100C6400080264EB0E0404FA07F7CA40CC401743A9
:100C7400C6E9007418460021BDE8F087C3F12001DD
:100C840002FA03FC20FA01F225FA01F19D402A43FD
:100C94004FEA1C471FFA8CFEB1FBF7F007FB101557
:100CA400110C41EA054100FB0EF58D4204FA03F4F0
:100CB40008D91CEB010100F1FF382FD28D422DD948
:100CC40002386144491B92B2B1FBF7F507FB1511D9
:100CD40042EA014205FB0EF1914208D91CEB0202E3
:100CE40005F1FF3816D2914214D9023D6244521ADA
:100CF40045EA004138E73146304608E73946E6E63A
:100D04001046FBE64845A9D2B9EB020865EB0C0E88
:100D1400013BA3E74546EAE72B4694E74046D1E783
:100D2400D0467BE7023D624432E708460AE7644462
:100D3400023842E7704700BF80B582B000AF034677
:100D4400FB71384AFB791370374B08221A70374B02
:100D540000221A70334B1B78012B07D9334B1B78B5
:100D640043F00803DAB2314B1A7006E02F4B1B78BC
:100D740043F00403DAB22D4B1A7000F085F93220E7
:100D840001F05AFB284B1B78184600F043F94FF446
:100D94007A7001F051FB302000F02BF941F29410ED
:100DA40000F09CF9302000F024F941F2941000F096
:100DB40095F9302000F01DF941F2941000F08EF9FD
:100DC400202000F016F9642000F088F9174B1B78F6
:100DD40043F02003DBB2184600F0CEF8144B042293
:100DE4001A7000F075F800F02BF8124B02221A70FA
:100DF400104B1B7843F00403DBB2184600F0BCF838
:100E040041F2941000F06AF90B49002000F076F8E2
:100E14000A49012000F072F800F01DF800BF0837FD
:100E2400BD4680BD3B0000203C000020380000206F
:100E3400390000203A0000200000002008000020B3
:100E440080B500AF012000F097F84FF4FA6000F08D
:100E540045F900BF80BD80B500AF022000F08CF8DA
:100E64004FF4FA6000F03AF900BF80BD90B587B046
:100E740000AF03460A46FB711346BB71124B07F1E0
:100E840008040FCB84E80F00104B1B78BA799A4200
:100E940003D30E4B1B78013BBB71BB799B0018330A
:100EA4003B4453F8103CDAB2FB791344DBB25BB237
:100EB40063F07F035BB2DBB2184600F05DF800BF5D
:100EC4001C37BD4690BD00BF605700083B000020A2
:100ED40080B500AF084B1B7843F00403DAB2064B2D
:100EE4001A70054B1B7843F00803DBB2184600F078
:100EF40043F800BF80BD00BF3900002080B584B036
:100F040000AF03463960FB71FB7903F00703FB7103
:100F1400FB79DB005BB243F040035BB2DBB2184603
:100F240000F02AF80023FB6009E0FB683A681344E8
:100F34001B78184600F02EF8FB680133FB60FB6851
:100F4400072BF2DD00BF00BF1037BD4680BD80B562
:100F540082B000AF786006E07B685A1C7A601B7828
:100F6400184600F017F87B681B78002BF4D100BFFB
:100F740000BF0837BD4680BD80B582B000AF0346D0
:100F8400FB71FB790021184600F012F800BF083706
:100F9400BD4680BD80B582B000AF0346FB71FB79CE
:100FA4000121184600F004F800BF0837BD4680BD93
:100FB40080B584B000AF03460A46FB711346BB718B
:100FC400FB7923F00F03FB73FB791B01BB73FA7BE3
:100FD400BB791343DBB2184600F00BF8BA7BBB793C
:100FE4001343DBB2184600F004F800BF1037BD46C7
:100FF40080BD80B582B000AF0346FB71FB79184613
:1010040000F008F8FB79184600F020F800BF083714
:10101400BD4680BD80B586B002AF0346FB71094B67
:101024001A78FB791343DBB2FB7307F10F020A232F
:10103400009301234E21044802F062FB00BF1037E5
:10104400BD4680BD3C000020F800002080B582B081
:1010540000AF0346FB71FB7943F00403DBB218468F
:10106400FFF7D8FF142000F039F8FB7923F00403CC
:10107400DBB21846FFF7CEFF142000F02FF800BFB4
:101084000837BD4680BD000080B400AF114BDB685B
:10109400104A23F08073D3600E4BDB680D4A43F093
:1010A4008073D3600C4B1B680B4A23F0010313605D
:1010B400094B1B68084A43F001031360064B0022E6
:1010C4005A6000BF00BF00BF00BFBD465DF8047B8F
:1010D400704700BFF0ED00E0001000E080B487B07E
:1010E40000AF78600E4B1B680E4AA2FB03239A0CD8
:1010F4007B6802FB03F37B610B4B5B683B610A4B30
:101104005A683B69D31AFB60FB687A699A42F6D83D
:1011140000BF00BF1C37BD465DF8047B704700BFAD
:101124001000002083DE1B43001000E080B582B075
:1011340000AF7860786801F054FC03469AB2084B1B
:101144001A80074B1B88962B03D9064B01221A7071
:1011540002E0044B00221A7000BF0837BD4680BD70
:101164005E0000206200002080B500AF2021094805
:1011740002F036F90346002B06D0074B01221A7001
:10118400064B00221A7002E0034B00221A7000BFC3
:1011940080BD00BF00000240660000206500002002
:1011A40080B400AF4FF080434FF4FA729A6300BFEB
:1011B400BD465DF8047B704780B400AF4FF08043B8
:1011C40040F213529A6300BFBD465DF8047B70473A
:1011D40080B582B000AF4FF480612E4802F000F970
:1011E4000346FB70FB78002B31D12B4B01221A7084
:1011F4004FF080434FF47A725A63FFF721FE0021C7
:101204000020FFF733FE2548FFF7A1FE4FF47A7064
:1012140001F012F94FF080434FF47A729A6300237D
:101224007B6010E0002202211D4802F0F1F84FF427
:1012340050711B4802F005F94FF4FA7001F0FCF804
:101244007B6801337B607B68272BEBDD1DE001228B
:101254000221134802F0DCF80F4B00221A704FF001
:1012640080434FF4FA725A6300224FF480710C48A1
:1012740002F0CEF800224FF40071094802F0C8F8D9
:1012840000224021064802F0C3F800BF0837BD46DB
:1012940080BD00BF000002406300002070570008BA
:1012A4000008024080B500AF0E4801F02DF964211A
:1012B4000C4801F0FBF90B4801F093FB03469AB28A
:1012C400094B1A80084B1B8840F2DB52934203D827
:1012D400064B00221A7002E0044B01221A7000BF70
:1012E40080BD00BF68000020600000206400002072
:1012F40080B500AF144B1B78012B02D1FFF750FFD0
:1013040020E0124B1B78012B0ED1FFF799FD002131
:101314000020FFF7ABFD0E48FFF719FE642001F033
:101324008BF8FFF749FF0DE0FFF78AFD002100204D
:10133400FFF79CFD0748FFF70AFE642001F07CF8E4
:10134400FFF72EFF00BF80BD630000206400002073
:10135400805700089057000880B500AF1C4B1B78DD
:10136400002B0AD14FF080434FF4FA725A630022E3
:101374000821184802F04CF827E0154B1B78012B84
:1013840023D1154B1B78012B1FD1012208211148B1
:1013940002F03EF84FF080434FF47A725A634FF4F0
:1013A400FA6001F049F84FF080434FF4FA725A633F
:1013B400FFF746FD00210020FFF758FD0748FFF71F
:1013C400C6FD40F6B83001F037F800BF80BD00BF5D
:1013D4006600002000040240650000209C570008BD
:1013E40080B500AF40210C4801F0FAFF0346002B02
:1013F40008D001224021094802F00AF80A2001F02D
:101404001BF807E00A2001F017F8002240210348E6
:1014140001F0FEFF00BF80BD000002400004024056
:1014240080B483B000AF0346FB80094B1B680022E5
:101434005A6200BF064B1B685A6AFB889A42F9D36A
:1014440000BF00BF0C37BD465DF8047B704700BF8A
:101454004C01002080B590B000AFFFF7F1FC334B96
:101464001B78184607F130030A22194604F0FAF8EB
:101474002F4B1B78184607F120030A22194604F063
:10148400F1F82C4B1B78184607F110030A22194671
:1014940004F0E8F8284B1B7818463B460A22194604
:1014A40004F0E0F834E000210020FFF7DFFC07F14E
:1014B40030031846FFF74BFD00210220FFF7D6FC4E
:1014C4001E48FFF744FD00210320FFF7CFFC07F17E
:1014D40020031846FFF73BFD01210020FFF7C6FC5F
:1014E40007F110031846FFF732FD01210220FFF730
:1014F400BDFC1348FFF72BFD01210320FFF7B6FCC9
:101504003B461846FFF723FD4FF47A7000F094FF32
:101514004FF400510B4801F063FF0346002BC2D087
:1015240000BF00BF4037BD4680BD00BF3F00002064
:10153400400000203D0000203E000020AC57000881
:10154400B45700080008024080B500AF01224FF4F0
:101554000041204801F05CFF012000F06DFF0022F3
:101564004FF400411B4801F053FF00BF4FF480418A
:10157400184801F035FF0346002BF7D0164B002224
:101584001A8005E0144B1B8801339AB2124B1A805F
:101594004FF480410F4801F023FF0346002BF1D1A3
:1015A4000D4B1B880D4AA2FB0323DB089AB20C4B9C
:1015B4001A803C2000F040FF094B1B88312B03D8D4
:1015C400084B01221A7002E0064B00221A7000BF79
:1015D40080BD00BF000402405A0000201F85EB516B
:1015E4005C0000206500002080B586B000AF0023B9
:1015F400FB753B4600221A605A609A60DA601A61F1
:1016040080233B6001237B600023FB600023BB60DD
:101614003B4619462A4801F04FFD00228021284804
:1016240001F0F6FE142000F007FF01228021244877
:1016340001F0EEFE1E20FFF7F3FE00237B60012382
:10164400BB603B4619461E4801F036FD2820FFF7D3
:10165400E7FE80211A4801F0C3FE0346002B0BD19C
:101664005020FFF7DDFE8021154801F0B9FE034646
:10167400002B01D00123FB7500F0D2FE0346114A72
:10168400136000F0CDFE03460F4A136004E000F03F
:10169400C7FE03460C4A13608021094801F0A0FEEE
:1016A4000346002B06D0074B1B689A1C064B1B688D
:1016B4009A42ECD8FB7D18461837BD4680BD00BF62
:1016C40000040240440000204800002080B582B09D
:1016D40000AF0023FB7163E000F0A2FE0346344A2E
:1016E400136000F09DFE0346324A136004E000F0EC
:1016F40097FE03462F4A136080212F4801F070FEA5
:101704000346002B06D12A4B1B689A1C294B1B68E5
:101714009A42ECD82820FFF783FE8021264801F066
:101724005FFE0346002B0ED1FB79C3F107030122B0
:1017340002FA03F35BB2DB435AB297F90630134063
:101744005BB2BB710BE0FB79C3F10703012202FA20
:1017540003F35AB297F9063013435BB2BB7100F03E
:101764005FFE0346124A136000F05AFE0346114A14
:10177400136004E000F054FE03460E4A1360802117
:101784000D4801F02DFE0346002B06D0084B1B68C4
:101794009A1C084B1B689A42ECD8FB790133FB7105
:1017A400FB79072B98D9BB7918460837BD4680BD0D
:1017B40044000020480000200004024080B52DEDC4
:1017C400028B82B000AF00F0C5FD00F017F900F005
:1017D40007FB00F0A1FA00F07DF900F0CDF900F06C
:1017E4001DFA00F049FA0220FFF7A6FA0021744816
:1017F40003F036F90421724803F032F9714803F01A
:1018040077F8FFF7E5FCFFF74DFDFFF771FDFFF7F4
:10181400ABFCFFF799FEFFF79FFDFFF7E1FDFFF734
:10182400E3FE0346002B00F0BE80FFF74FFF0346A4
:101834001A46654B1A70FFF749FF03461A46634B75
:101844001A70FFF743FF03461A46614B1A70FFF7FD
:101854003DFF03461A465F4B1A70FFF737FF0346F6
:101864001A465D4B1A70584B1B781A46574B1B7817
:101874001344574A12781344564A12781344564A6A
:101884001278934272D1524B1B7807EE903AB8EE1D
:10189400678A504B1B781846FEF704FE4FF000028F
:1018A4004E4BFEF793FF02460B4610461946FFF7D0
:1018B40075F807EE900A78EE277A494BC3ED007A63
:1018C400474BD3ED007AB2EE027A27EE877AF1EE37
:1018D400046AC7EE267A9FED437A77EE877A424B05
:1018E400C3ED007A384B1B7807EE903AB8EE678A5E
:1018F400364B1B781846FEF7D5FD4FF00002374BE8
:10190400FEF764FF02460B4610461946FFF746F8F9
:1019140007EE900A78EE277A344BC3ED007A324B07
:10192400D3ED007AFCEEE77AC7ED017A3B79DAB2BF
:101934002F4B1A702C4BD3ED007AB2EE047A27EEBB
:10194400877A2B4B1B781A4613469B0013445B0083
:1019540007EE903AF8EEE77A77EE677AFCEEE77AEC
:10196400C7ED017A3B79DAB2224B1A70184B1B7817
:101974001B2B0AD8002201211F4801F049FD012236
:1019840002211D4801F044FD0DE0114B1B781C2B76
:1019940009D901220121184801F03AFD002202214F
:1019A400154801F035FD4FF40051134801F018FDBE
:1019B4000346002B7FF425AFFFF74CFD21E700BF62
:1019C400940100204C0100203D0000203E00002036
:1019D4003F0000204000002041000020000024407F
:1019E4004C00002000000042500000205400002061
:1019F40058000020590000200008024080B594B02F
:101A040000AF07F11C0334220021184603F06EFED8
:101A140007F1080300221A605A609A60DA601A61BA
:101A240000237B60294B1B6C284A43F080531364CA
:101A3400264B1B6C03F080537B607B6800233B6068
:101A4400234B1B6823F44043214A43F4804313602F
:101A54001F4B1B6803F440433B603B680223FB615C
:101A64000123BB621023FB6202237B630023BB635D
:101A74000823FB6348233B6402237B640223BB6487
:101A84000223FB6407F11C03184602F043FC0346DF
:101A9400002B01D000F074FA0F23BB600223FB601B
:101AA40000233B614FF480537B610023BB6107F14A
:101AB40008030221184602F07DF90346002B01D0E9
:101AC40000F05EFA00BF5037BD4680BD00380240CA
:101AD4000070004080B584B000AF3B4600221A601D
:101AE4005A609A60DA60214B214A1A601F4B002227
:101AF4005A601E4B00229A601C4B00221A611B4B39
:101B040004221A76194B002283F82020174B002256
:101B1400DA62164B174A9A62144B0022DA60134BAE
:101B24000122DA61114B002283F830200F4B01228D
:101B34005A610E4800F0A4FC0346002B01D000F0CB
:101B44001FFA09233B6001237B600023BB603B46F3
:101B54001946064800F066FF0346002B01D000F04A
:101B64000FFA00BF1037BD4680BD00BF68000020DB
:101B7400002001400100000F80B584B000AF3B4657
:101B840000221A605A609A60DA60214B214A1A6076
:101B94001F4B00225A601E4B00229A601C4B0022ED
:101BA4001A611B4B00221A76194B002283F820205D
:101BB400174B0022DA62164B174A9A62144B002222
:101BC400DA60134B0122DA61114B002283F83020D2
:101BD4000F4B01225A610E4800F052FC0346002BC1
:101BE40001D000F0CDF903233B6001237B60002387
:101BF400BB603B461946064800F014FF0346002B21
:101C040001D000F0BDF900BF1037BD4680BD00BF54
:101C1400B0000020002101400100000F80B500AF9A
:101C2400124B134A1A60114B124A5A600F4B00228E
:101C34009A600E4B0022DA600C4B4FF480421A611A
:101C44000A4B00225A61094B00229A61074B002279
:101C5400DA61064B00221A62044801F00DFC0346C7
:101C6400002B01D000F08CF900BF80BDF8000020EB
:101C740000540040A086010080B586B000AF07F193
:101C8400080300221A605A609A60DA603B46002218
:101C94001A605A601E4B1F4A1A601D4B47225A6035
:101CA4001B4B00229A601A4B4FF6FF72DA60184BF6
:101CB40000221A61164B00225A61154B00229A61C8
:101CC400134802F0C5FD0346002B01D000F058F97B
:101CD4004FF48053BB6007F1080319460C4803F026
:101CE40049F80346002B01D000F04AF900233B6079
:101CF40000237B603B461946054803F01FFC03465E
:101D0400002B01D000F03CF900BF1837BD4680BD60
:101D14004C0100200000014080B58AB000AF07F1FB
:101D2400200300221A605A603B1D00221A605A6088
:101D34009A60DA601A615A619A61284B4FF08042C6
:101D44001A60264B8F225A60244B00229A60234B40
:101D540042F20F72DA60214B00221A611F4B0022FB
:101D64009A611E4802F02CFE0346002B01D000F0BD
:101D740007F900233B6200237B6207F12003194625
:101D8400164803F0DBFB0346002B01D000F0F8F803
:101D940060237B600023BB600023FB6000237B6126
:101DA4003B1D002219460D4802F022FF0346002B7A
:101DB40001D000F0E5F83B1D04221946074802F063
:101DC40017FF0346002B01D000F0DAF8034800F0B7
:101DD40015FA00BF2837BD4680BD00BF940100201E
:101DE40080B58AB000AF07F1140300221A605A606C
:101DF4009A60DA601A6100233B615C4B1B6B5B4A9F
:101E040043F004031363594B1B6B03F004033B615E
:101E14003B690023FB60554B1B6B544A43F0800322
:101E24001363524B1B6B03F08003FB60FB680023BE
:101E3400BB604E4B1B6B4D4A43F0010313634B4B8A
:101E44001B6B03F00103BB60BB6800237B60474B43
:101E54001B6B464A43F002031363444B1B6B03F0B2
:101E640002037B607B6800233B60404B1B6B3F4A53
:101E740043F0080313633D4B1B6B03F008033B6003
:101E84003B68002240F24331394801F0C1FA002294
:101E940048F2C801374801F0BBFA00220421364851
:101EA40001F0B6FA4FF400537B610023BB610023B9
:101EB400FB6107F1140319462D4801F0FDF840F2C7
:101EC40043337B610123BB610023FB6100233B623D
:101ED40007F114031946264801F0EEF820237B612C
:101EE4000023BB610223FB6107F114031946234855
:101EF40001F0E2F84FF498637B610023BB61002397
:101F0400FB6107F1140319461C4801F0D5F84FF49E
:101F140080437B610023BB610023FB6107F1140351
:101F24001946144801F0C8F848F2C8037B6101233C
:101F3400BB610023FB6100233B6207F114031946D4
:101F44000C4801F0B9F804237B610123BB61002331
:101F5400FB6100233B6207F114031946064801F0B4
:101F6400ABF800BF2837BD4680BD00BF0038024033
:101F74000008024000040240000C0240000002403D
:101F840080B400AF72B600BFFEE7000080B483B037
:101F940000AF00237B60104B5B6C0F4A43F480431B
:101FA40053640D4B5B6C03F480437B607B680023BC
:101FB4003B60094B1B6C084A43F080531364064B87
:101FC4001B6C03F080533B603B6800BF0C37BD467D
:101FD4005DF8047B704700BF0038024080B58CB0C8
:101FE40000AF786007F11C0300221A605A609A60FF
:101FF400DA601A617B681B68364A934230D1002349
:10200400BB61354B5B6C344A43F480735364324B8D
:102014005B6C03F48073BB61BB6900237B612E4B53
:102024001B6B2D4A43F0020313632B4B1B6B03F012
:1020340002037B617B690223FB6103233B62002370
:102044007B6207F11C031946244801F035F800228D
:102054000021122000F0F9FF122001F012F834E000
:102064007B681B681E4A93422FD100233B611A4BA5
:102074005B6C194A43F400735364174B5B6C03F4B1
:1020840000733B613B690023FB60134B1B6B124ADB
:1020940043F001031363104B1B6B03F00103FB605C
:1020A400FB680823FB6103233B6200237B6207F187
:1020B4001C0319460B4800F0FFFF002200211220E8
:1020C40000F0C3FF122000F0DCFF00BF3037BD4634
:1020D40080BD00BF002001400038024000040240DF
:1020E400002101400000024080B58AB000AF786052
:1020F40007F1140300221A605A609A60DA601A61C8
:102104007B681B68194A93422CD100233B61184B0E
:102114001B6B174A43F002031363154B1B6B03F04D
:1021240002033B613B694FF440737B611223BB6143
:102134000023FB6103233B6204237B6207F1140346
:1021440019460C4800F0B8FF0023FB60084B1B6CD9
:10215400074A43F400131364054B1B6C03F4001388
:10216400FB60FB6800BF2837BD4680BD00540040BB
:10217400003802400004024080B485B000AF7860AB
:102184007B681B680B4A93420DD10023FB600A4B0A
:102194005B6C094A43F001035364074B5B6C03F027
:1021A4000103FB60FB6800BF1437BD465DF8047B88
:1021B400704700BF000001400038024080B485B081
:1021C40000AF78607B681B68B3F1804F0DD10023AA
:1021D400FB60094B1B6C084A43F001031364064B74
:1021E4001B6C03F00103FB60FB6800BF1437BD46A2
:1021F4005DF8047B704700BF0038024080B588B0AA
:1022040000AF786007F10C0300221A605A609A60EC
:10221400DA601A617B681B68B3F1804F1DD100231B
:10222400BB60104B1B6B0F4A43F0010313630D4B50
:102234001B6B03F00103BB60BB680323FB60022339
:102244003B6100237B610023BB610123FB6107F138
:102254000C031946044800F02FFF00BF2037BD4689
:1022640080BD00BF003802400000024080B400AFCF
:10227400FEE780B400AFFEE780B400AFFEE780B4B1
:1022840000AFFEE780B400AFFEE780B400AF00BF4C
:10229400BD465DF8047B704780B400AF00BFBD4607
:1022A4005DF8047B704780B400AF00BFBD465DF8A5
:1022B400047B704780B500AF00F09EF800BF80BD7E
:1022C40080B500AF034800F07CFA034800F079FAC7
:1022D40000BF80BD68000020B000002080B400AFC3
:1022E400064BD3F88830054A43F47003C2F88830AB
:1022F40000BFBD465DF8047B704700BF00ED00E001
:10230400DFF834D0FFF7EAFF0C480D490D4A0023EB
:1023140002E0D458C4500433C4188C42F9D30A4A96
:102324000A4C002301E013600432A242FBD303F001
:10233400E5F9FFF743FA704700000220000000208F
:102344001C0000200C5800081C000020E0010020A4
:10235400FEE7000080B500AF0E4B1B680D4A43F446
:10236400007313600B4B1B680A4A43F480631360C9
:10237400084B1B68074A43F480731360032000F082
:1023840059FE0F2000F008F8FFF700FE002318465E
:1023940080BD00BF003C024080B582B000AF7860D1
:1023A400124B1A68124B1B7819464FF47A73B3FB1D
:1023B400F1F3B2FBF3F3184600F071FE0346002B71
:1023C40001D001230EE07B680F2B0AD80022796824
:1023D4004FF0FF3000F039FE064A7B68136000239B
:1023E40000E0012318460837BD4680BD10000020D8
:1023F400180000201400002080B400AF064B1B78A6
:102404001A46064B1B681344044A136000BFBD46BA
:102414005DF8047B704700BF18000020DC01002039
:1024240080B400AF034B1B681846BD465DF8047BBF
:10243400704700BFDC01002080B584B000AF786035
:10244400FFF7EEFFB8607B68FB60FB68B3F1FF3F0A
:1024540005D00A4B1B781A46FB681344FB6000BF87
:10246400FFF7DEFF0246BB68D31AFA689A42F7D830
:1024740000BF00BF1037BD4680BD00BF180000205C
:1024840080B584B000AF78600023FB737B68002BB9
:1024940001D1012333E07B681B6C002B09D17868E0
:1024A400FFF79CFD7B6800225A647B68002283F856
:1024B4003C207B681B6C03F01003002B18D17B6855
:1024C4001B6C23F4885323F0020343F002027B685D
:1024D4001A64786800F0D8FB7B6800225A647B6831
:1024E4001B6C23F0030343F001027B681A6401E0D0
:1024F4000123FB737B68002283F83C20FB7B184696
:102504001037BD4680BD000080B485B000AF786050
:102514000023BB607B6893F83C30012B01D102237C
:10252400B2E07B68012283F83C207B681B689B68CF
:1025340003F00103012B18D07B681B689A687B6841
:102544001B6842F001029A60524B1B68524AA2FB7C
:1025540003239A0C13465B001344BB6002E0BB6880
:10256400013BBB60BB68002BF9D17B681B689B688F
:1025740003F00103012B7AD17B681B6C23F4E06325
:1025840023F0010343F480727B681A647B681B6840
:102594005B6803F48063002B07D07B681B6C23F417
:1025A400405343F480527B681A647B681B6C03F4C9
:1025B4008053B3F5805F06D17B685B6C23F0060221
:1025C4007B685A6402E07B6800225A647B680022BC
:1025D40083F83C20314BFB607B681B686FF0220260
:1025E4001A60FB685B6803F01F03002B2AD17B6829
:1025F4001B682B4A934215D07B681B68294A934277
:1026040005D1264B5B6803F01F03002B0AD07B68BF
:102614001B68254A934236D1204B5B6803F01003B4
:10262400002B30D17B681B689B6803F04053002B60
:1026340029D17B681B689A687B681B6842F08042DA
:102644009A6020E07B681B68154A93421BD17B6823
:102654001B689B6803F04053002B14D17B681B68F4
:102664009A687B681B6842F080429A600BE07B6842
:102674001B6C43F010027B681A647B685B6C43F04C
:1026840001027B685A64002318461437BD465DF87E
:10269400047B70471000002083DE1B4300230140AD
:1026A40000200140002101400022014080B584B097
:1026B40000AF786039600023FB607B681B689B680F
:1026C40003F48063B3F5806F13D17B681B689B6848
:1026D40003F48073B3F5807F0BD17B681B6C43F0EC
:1026E40020027B681A647B68002283F83C20012363
:1026F40063E0FFF795FEF86021E03B68B3F1FF3F2C
:102704001DD03B68002B07D0FFF78AFE0246FB680A
:10271400D31A3A689A4212D27B681B681B6803F08A
:102724000203022B0BD07B681B6C43F004027B6812
:102734001A647B68002283F83C2003233DE07B6815
:102744001B681B6803F00203022BD6D17B681B684D
:102754006FF012021A607B681B6C43F400727B6892
:102764001A647B681B689B6803F04053002B23D1D9
:102774007B681B7E002B1FD17B681B68DB6A03F41C
:102784007003002B06D07B681B689B6803F480638E
:10279400002B11D17B681B6C23F480727B681A6454
:1027A4007B681B6C03F48053002B05D17B681B6C86
:1027B40043F001027B681A64002318461037BD46B3
:1027C40080BD80B586B000AF786000237B610023B4
:1027D4003B617B681B681B68FB607B681B685B68EC
:1027E400BB60FB6803F002037B61BB6803F020035A
:1027F4003B617B69002B49D03B69002B46D07B6849
:102804001B6C03F01003002B05D17B681B6C43F495
:1028140000727B681A647B681B689B6803F04053F2
:10282400002B2BD17B681B7E002B27D17B681B6878
:10283400DB6A03F47003002B06D07B681B689B687B
:1028440003F48063002B19D17B681B685A687B688A
:102854001B6822F020025A607B681B6C23F4807290
:102864007B681A647B681B6C03F48053002B05D1CE
:102874007B681B6C43F001027B681A647868FEF77E
:1028840055FC7B681B686FF012021A60FB6803F04A
:1028940004037B61BB6803F080033B617B69002B0D
:1028A40057D03B69002B54D07B681B6C03F010039A
:1028B400002B05D17B681B6C43F400527B681A64BF
:1028C4007B681B689B6803F44013002B39D17B6839
:1028D4001B689B6B03F44013002B06D07B681B68BA
:1028E4009B6803F48063002B2BD17B681B685B68B7
:1028F40003F48063002B24D17B681B689B6803F07E
:102904004053002B1DD17B681B7E002B19D17B68A3
:102914001B685A687B681B6822F080025A607B68D7
:102924001B6C23F480527B681A647B681B6C03F471
:102934008073002B05D17B681B6C43F001027B681C
:102944001A64786800F09CFA7B681B686FF00C02CC
:102954001A60FB6803F001037B61BB6803F040036A
:102964003B617B69002B17D03B69002B14D07B683B
:102974001B681B6803F00103012B0DD17B681B6CE2
:1029840043F480327B681A64786800F037F87B6817
:102994001B686FF001021A60FB6803F020037B617F
:1029A400BB6803F080633B617B69002B15D03B69F6
:1029B400002B12D07B685B6C43F002027B685A6484
:1029C4007B681B686FF020021A60786800F020F8BA
:1029D4007B681B686FF020021A6000BF1837BD4681
:1029E40080BD80B483B000AF78607B681B68DB6C0B
:1029F40018460C37BD465DF8047B704780B483B03D
:102A040000AF786000BF0C37BD465DF8047B7047AB
:102A140080B483B000AF786000BF0C37BD465DF86A
:102A2400047B704780B485B000AF786039600023C0
:102A3400BB607B6893F83C30012B01D1022313E186
:102A44007B68012283F83C203B681B68092B25D94D
:102A54007B681B68D9683B681B689BB21A4613469F
:102A64005B0013441E3B072202FA03F3DA437B683C
:102A74001B680A40DA607B681B68D9683B689A68FF
:102A84003B681B689BB2184603465B0003441E3B2D
:102A94009A407B681B680A43DA6022E07B681B6803
:102AA40019693B681B689BB21A4613465B001344C2
:102AB400072202FA03F3DA437B681B680A401A61AF
:102AC4007B681B6819693B689A683B681B689BB202
:102AD400184603465B0003449A407B681B680A431C
:102AE4001A613B685B68062B24D87B681B68596BAA
:102AF4003B685A6813469B001344053B1F2202FAA5
:102B040003F3DA437B681B680A405A637B681B68DB
:102B1400596B3B681B689BB218463B685A6813465E
:102B24009B001344053B00FA03F27B681B680A43CD
:102B34005A634CE03B685B680C2B24D87B681B68A9
:102B4400196B3B685A6813469B001344233B1F22AE
:102B540002FA03F3DA437B681B680A401A637B6852
:102B64001B68196B3B681B689BB218463B685A6824
:102B740013469B001344233B00FA03F27B681B6853
:102B84000A431A6323E07B681B68D96A3B685A6866
:102B940013469B001344413B1F2202FA03F3DA431A
:102BA4007B681B680A40DA627B681B68D96A3B68E9
:102BB4001B689BB218463B685A6813469B00134433
:102BC400413B00FA03F27B681B680A43DA62294B33
:102BD400FB607B681B68284A93420FD13B681B68E3
:102BE400122B0BD1FB685B6823F40002FB685A606C
:102BF400FB685B6843F48002FB685A607B681B686F
:102C04001D4A93422BD13B681B681C4A934203D054
:102C14003B681B68112B22D1FB685B6823F480029C
:102C2400FB685A60FB685B6843F40002FB685A6007
:102C34003B681B68114A934211D1114B1B68114A1E
:102C4400A2FB03239A0C13469B0013445B00BB6056
:102C540002E0BB68013BBB60BB68002BF9D17B6819
:102C6400002283F83C20002318461437BD465DF843
:102C7400047B704700230140002001401200001033
:102C84001000002083DE1B4380B485B000AF786061
:102C9400794BFB60FB685B6823F44032FB685A6045
:102CA400FB685A687B685B681A43FB685A607B68F8
:102CB4001B685A687B681B6822F480725A607B68C0
:102CC4001B6859687B681B691A027B681B680A4386
:102CD4005A607B681B685A687B681B6822F04072E4
:102CE4005A607B681B6859687B689A687B681B68B4
:102CF4000A435A607B681B689A687B681B6822F4E5
:102D040000629A607B681B6899687B68DA687B68F4
:102D14001B680A439A607B689B6A584A934222D094
:102D24007B681B689A687B681B6822F070629A60F3
:102D34007B681B6899687B689A6A7B681B680A438E
:102D44009A607B681B689A687B681B6822F0405213
:102D54009A607B681B6899687B68DA6A7B681B6881
:102D64000A439A600FE07B681B689A687B681B685B
:102D740022F070629A607B681B689A687B681B68A3
:102D840022F040529A607B681B689A687B681B68D3
:102D940022F002029A607B681B6899687B681B7E3C
:102DA4005A007B681B680A439A607B6893F820305A
:102DB400002B1BD07B681B685A687B681B6842F435
:102DC40000625A607B681B685A687B681B6822F43F
:102DD40060425A607B681B6859687B685B6A013B88
:102DE4005A037B681B680A435A6007E07B681B68C8
:102DF4005A687B681B6822F400625A607B681B680F
:102E0400DA6A7B681B6822F47002DA627B681B68EA
:102E1400D96A7B68DB69013B1A057B681B680A4336
:102E2400DA627B681B689A687B681B6822F400720C
:102E34009A607B681B6899687B6893F830305A0203
:102E44007B681B680A439A607B681B689A687B6886
:102E54001B6822F480629A607B681B6899687B68AF
:102E64005B699A027B681B680A439A6000BF143747
:102E7400BD465DF8047B7047002301400100000F4C
:102E840080B483B000AF786000BF0C37BD465DF8F6
:102E9400047B704780B485B000AF78607B6803F032
:102EA4000703FB600C4BDB68BB60BA684FF6FF039B
:102EB4001340BB60FB681A02BB68134343F0BF6353
:102EC40043F40033BB60044ABB68D36000BF1437CB
:102ED400BD465DF8047B704700ED00E080B400AFB0
:102EE400044BDB681B0A03F007031846BD465DF874
:102EF400047B704700ED00E080B483B000AF03466C
:102F0400FB7197F90730002B0BDBFB7903F01F02F1
:102F1400074997F907305B09012000FA02F241F8EA
:102F2400232000BF0C37BD465DF8047B704700BF0B
:102F340000E100E080B483B000AF03463960FB7168
:102F440097F90730002B0ADB3B68DAB20C4997F992
:102F540007301201D2B20B4483F800230AE03B6825
:102F6400DAB20849FB7903F00F03043B1201D2B231
:102F74000B441A7600BF0C37BD465DF8047B7047DE
:102F840000E100E000ED00E080B489B000AFF8603B
:102F9400B9607A60FB6803F00703FB61FB69C3F166
:102FA4000703042B28BF0423BB61FB690433062BEE
:102FB40002D9FB69033B00E000237B614FF0FF3241
:102FC400BB6902FA03F3DA43BB681A407B699A408F
:102FD4004FF0FF317B6901FA03F3D9437B680B405F
:102FE400134318462437BD465DF8047B7047000040
:102FF40080B582B000AF78607B68013BB3F1807F1D
:1030040001D301230FE00A4A7B68013B53600F217F
:103014004FF0FF30FFF78EFF054B00229A60044B00
:1030240007221A60002318460837BD4680BD00BF3A
:1030340010E000E080B582B000AF78607868FFF7F8
:1030440029FF00BF0837BD4680BD80B586B000AFFC
:103054000346B9607A60FB7300237B61FFF73EFF90
:1030640078617A68B9687869FFF78EFF024697F944
:103074000F3011461846FFF75DFF00BF1837BD46F5
:1030840080BD80B582B000AF0346FB7197F907306D
:103094001846FFF731FF00BF0837BD4680BD80B535
:1030A40082B000AF78607868FFF7A2FF0346184645
:1030B4000837BD4680BD000080B489B000AF786099
:1030C400396000237B6100233B610023BB61002343
:1030D400FB6165E10122FB6902FA03F37B613B6852
:1030E4001B687A6913403B613A697B699A4240F0F4
:1030F40054813B685B6803F00303012B05D03B68F4
:103104005B6803F00303022B30D17B689B68BB61CF
:10311400FB695B00032202FA03F3DB43BA69134041
:10312400BB613B68DA68FB695B0002FA03F3BA69C6
:103134001343BB617B68BA699A607B685B68BB6157
:103144000122FB6902FA03F3DB43BA691340BB6152
:103154003B685B681B0903F00102FB6902FA03F395
:10316400BA691343BB617B68BA695A603B685B68A0
:1031740003F00303032B17D07B68DB68BB61FB6997
:103184005B00032202FA03F3DB43BA691340BB6119
:103194003B689A68FB695B0002FA03F3BA6913435C
:1031A400BB617B68BA69DA603B685B6803F0030360
:1031B400022B23D1FB69DA087B68083253F82230EA
:1031C400BB61FB6903F007039B000F2202FA03F3C0
:1031D400DB43BA691340BB613B681A69FB6903F0BE
:1031E40007039B0002FA03F3BA691343BB61FB694B
:1031F400DA087B680832B96943F822107B681B68D7
:10320400BB61FB695B00032202FA03F3DB43BA6987
:103214001340BB613B685B6803F00302FB695B001E
:1032240002FA03F3BA691343BB617B68BA691A6093
:103234003B685B6803F44033002B00F0AE8000234E
:10324400FB605D4B5B6C5C4A43F4804353645A4BB4
:103254005B6C03F48043FB60FB68584AFB699B0882
:10326400023352F82330BB61FB6903F003039B0074
:103274000F2202FA03F3DB43BA691340BB617B6894
:103284004F4A934225D07B684E4A93421FD07B68B5
:103294004D4A934219D07B684C4A934213D07B68C1
:1032A4004B4A93420DD07B684A4A934207D07B68CD
:1032B400494A934201D106230CE007230AE005237F
:1032C40008E0042306E0032304E0022302E00123D0
:1032D40000E00023FA6902F0030292009340BA6905
:1032E4001343BB613549FB699B080233BA6941F852
:1032F40023203A4B9B68BB613B69DB43BA691340AB
:10330400BB613B685B6803F48013002B03D0BA698C
:103314003B691343BB61314ABB6993602F4BDB6844
:10332400BB613B69DB43BA691340BB613B685B68C3
:1033340003F40013002B03D0BA693B691343BB6148
:10334400264ABB69D360254B5B68BB613B69DB43A1
:10335400BA691340BB613B685B6803F40033002B1C
:1033640003D0BA693B691343BB611C4ABB69536010
:103374001A4B1B68BB613B69DB43BA691340BB61F1
:103384003B685B6803F48033002B03D0BA693B6964
:103394001343BB61114ABB691360FB690133FB61D1
:1033A400FB690F2B7FF696AE00BF00BF2437BD46E6
:1033B4005DF8047B704700BF0038024000380140CC
:1033C400000002400004024000080240000C0240D9
:1033D400001002400014024000180240003C01406A
:1033E40080B485B000AF78600B467B807B681A6937
:1033F4007B881340002B02D00123FB7301E00023E0
:10340400FB73FB7B18461437BD465DF8047B70479D
:1034140080B483B000AF78600B467B8013467B702A
:103424007B78002B03D07A887B689A6103E07B88E1
:103434001A047B689A6100BF0C37BD465DF8047BB3
:10344400704780B485B000AF78600B467B807B68A2
:103454005B69FB607A88FB6813401A04FB68D943F4
:103464007B880B401A437B689A6100BF1437BD46C2
:103474005DF8047B7047000080B584B000AF7860CD
:103484007B68002B01D101232BE17B6893F83D304D
:10349400DBB2002B06D17B68002283F83C207868DD
:1034A400FEF722FE7B68242283F83D207B681B689C
:1034B4001A687B681B6822F001021A607B681B682B
:1034C4001A687B681B6842F400421A607B681B68B8
:1034D4001A687B681B6822F400421A6000F05CFDE5
:1034E400F8607B685B68814A934207D8FB68804A2E
:1034F400934294BF01230023DBB206E0FB687D4ABC
:10350400934294BF01230023DBB2002B01D001239B
:10351400E7E0FB68784AA2FB03239B0CBB607B6853
:103524001B685B6823F03F017B681B68BA680A4329
:103534005A607B681B681B6A23F03F017B685B68E9
:103544006A4A934202D8BB68013309E0BB684FF46E
:10355400967202FB03F3694AA2FB03239B0901331E
:103564007A6812680B4313627B681B68DB6923F477
:103574004F4222F0FF027B685B685C498B4219D89A
:10358400FB68591E7B685B685B00B1FBF3F3591C55
:1035940040F6FC730B40002B0AD0FB68591E7B6875
:1035A4005B685B00B1FBF3F30133C3F30B0351E03E
:1035B40004234FE07B689B68002B11D1FB68581EE5
:1035C4007B6859680B465B000B44B0FBF3F3013393
:1035D400C3F30B03002B0CBF01230023DBB212E067
:1035E400FB68581E7B6859680B469B000B44990086
:1035F4000B44B0FBF3F30133C3F30B03002B0CBFF9
:1036040001230023DBB2002B01D0012322E07B68DD
:103614009B68002B0ED1FB68581E7B6859680B46CB
:103624005B000B44B0FBF3F30133C3F30B0343F42C
:1036340000430FE0FB68581E7B6859680B469B00EB
:103644000B4499000B44B0FBF3F30133C3F30B03B6
:1036540043F44043796809681343CB617B681B6872
:103664001B6823F0C0017B68DA697B681B6A1A4314
:103674007B681B680A431A607B681B689B6823F499
:10368400034323F0FF037A6811697A68D26811430F
:103694007A6812680B4393607B681B68DB6823F0CD
:1036A400FF017B685A697B689B691A437B681B68C6
:1036B4000A43DA607B681B681A687B681B6842F0FF
:1036C40001021A607B6800221A647B68202283F856
:1036D4003D207B6800221A637B68002283F83E2029
:1036E400002318461037BD4680BD00BFA0860100E8
:1036F4007F841E00FF083D0083DE1B43D34D621010
:1037040080B588B002AFF8607A601A460B467B81B8
:1037140013463B81FEF784FE7861FB6893F83D30E5
:10372400DBB2202B40F0E0807B6900931923012257
:103734007049F86800F064F90346002B01D00223B5
:10374400D3E0FB6893F83C30012B01D10223CCE099
:10375400FB68012283F83C20FB681B681B6803F0AC
:103764000103012B07D0FB681B681A68FB681B6800
:1037740042F001021A60FB681B681A68FB681B6848
:1037840022F400621A60FB68212283F83D20FB6862
:10379400102283F83E20FB6800221A64FB687A68D2
:1037A4005A62FB683A895A85FB685B8D9AB2FB685A
:1037B4001A85FB68504ADA6279897B693A6AF86843
:1037C40000F09CF80346002B01D001238DE0002378
:1037D4003B61FB681B685B693B61FB681B689B6919
:1037E4003B613B6966E07A69396AF86800F022FA5D
:1037F4000346002B0DD0FB681B6C042B07D1FB6820
:103804001B681A68FB681B6842F400721A60012383
:103814006BE0FB685B6A1A78FB681B681A61FB68DB
:103824005B6A5A1CFB685A62FB685B8D9BB2013B66
:103834009AB2FB685A85FB681B8D013B9AB2FB6800
:103844001A85FB681B685B6903F00403042B1BD116
:10385400FB681B8D002B17D0FB685B6A1A78FB682A
:103864001B681A61FB685B6A5A1CFB685A62FB6836
:103874005B8D9BB2013B9AB2FB685A85FB681B8D3A
:10388400013B9AB2FB681A857A69396AF86800F0D4
:1038940019FA0346002B0DD0FB681B6C042B07D1CF
:1038A400FB681B681A68FB681B6842F400721A60A4
:1038B40001231AE0FB681B8D002B94D1FB681B6865
:1038C4001A68FB681B6842F400721A60FB682022C5
:1038D40083F83D20FB68002283F83E20FB68002229
:1038E40083F83C20002300E0022318461837BD4625
:1038F40080BD00BF020010000000FFFF80B588B04B
:1039040002AFF8607A603B600B467B81FB68DB6A40
:103914007B617B69082B06D07B69012B03D07B6913
:1039240013F5803F08D1FB681B681A68FB681B68A5
:1039340042F480721A600BE0FB681B6B122B07D1F8
:10394400FB681B681A68FB681B6842F480721A6083
:103954003B6800937B6800224FF00111F86800F087
:103964004FF80346002B0DD0FB681B681B6803F45B
:103974008073B3F5807F03D1FB684FF400721A643F
:10398400032335E0FB681B69B3F5804F08D17B89BD
:10399400DBB21A46FB681B6802F0FE021A611BE0E8
:1039A4007B89DB11DBB203F00603DBB263F00F03A8
:1039B400DAB2FB681B681A613B687A680E49F868DA
:1039C40000F098F80346002B01D0012310E07B8916
:1039D400DAB2FB681B681A613B687A680749F868C1
:1039E40000F088F80346002B01D0012300E00023F7
:1039F40018461837BD4680BD0800010002000100CA
:103A040080B584B000AFF860B9603B601346FB71C9
:103A140048E03B68B3F1FF3F44D0FEF701FD0246A6
:103A2400BB69D31A3A689A4202D33B68002B39D156
:103A3400BB681B0CDBB2012B0DD1FB681B685B69F7
:103A4400DA43BB6813409BB2002B0CBF0123002355
:103A5400DBB21A460CE0FB681B689B69DA43BB685F
:103A640013409BB2002B0CBF01230023DBB21A4688
:103A7400FB799A4216D1FB6800221A63FB68202264
:103A840083F83D20FB68002283F83E20FB681B6C12
:103A940043F02002FB681A64FB68002283F83C2090
:103AA400012323E0BB681B0CDBB2012B0DD1FB68A7
:103AB4001B685B69DA43BB6813409BB2002B0CBFE5
:103AC40001230023DBB21A460CE0FB681B689B69E8
:103AD400DA43BB6813409BB2002B0CBF01230023C5
:103AE400DBB21A46FB799A4293D00023184610376A
:103AF400BD4680BD80B584B000AFF860B9607A601F
:103B04003B6071E0FB681B685B6903F48063B3F599
:103B1400806F23D1FB681B681A68FB681B6842F43A
:103B240000721A60FB681B686FF480625A61FB685C
:103B340000221A63FB68202283F83D20FB680022E0
:103B440083F83E20FB681B6C43F00402FB681A6494
:103B5400FB68002283F83C20012367E07B68B3F113
:103B6400FF3F41D0FEF75CFC02463B68D31A7A68FB
:103B74009A4202D37B68002B36D1BB681B0CDBB2A4
:103B8400012B0CD1FB681B685B69DA43BB681340EB
:103B94009BB2002B14BF01230023DBB20BE0FB68B4
:103BA4001B689B69DA43BB6813409BB2002B14BFAC
:103BB40001230023DBB2002B16D0FB6800221A631A
:103BC400FB68202283F83D20FB68002283F83E2016
:103BD400FB681B6C43F02002FB681A64FB6800223C
:103BE40083F83C20012321E0BB681B0CDBB2012BD2
:103BF4000CD1FB681B685B69DA43BB6813409BB25A
:103C0400002B14BF01230023DBB20BE0FB681B680D
:103C14009B69DA43BB6813409BB2002B14BF01239A
:103C24000023DBB2002B7FF46DAF0023184610375E
:103C3400BD4680BD80B584B000AFF860B9607A60DD
:103C440034E0F86800F086F80346002B01D0012325
:103C540034E0BB68B3F1FF3F28D0FEF7E1FB024636
:103C64007B68D31ABA689A4202D3BB68002B1DD171
:103C7400FB681B685B6903F08003802B16D0FB682C
:103C840000221A63FB68202283F83D20FB6800228F
:103C940083F83E20FB681B6C43F02002FB681A6427
:103CA400FB68002283F83C20012307E0FB681B68C3
:103CB4005B6903F08003802BC3D1002318461037BF
:103CC400BD4680BD80B584B000AFF860B9607A604D
:103CD40034E0F86800F03EF80346002B01D00123DD
:103CE40034E0BB68B3F1FF3F28D0FEF799FB0246EE
:103CF4007B68D31ABA689A4202D3BB68002B1DD1E1
:103D0400FB681B685B6903F00403042B16D0FB6893
:103D140000221A63FB68202283F83D20FB680022FE
:103D240083F83E20FB681B6C43F02002FB681A6496
:103D3400FB68002283F83C20012307E0FB681B6832
:103D44005B6903F00403042BC3D100231846103726
:103D5400BD4680BD80B483B000AF78607B681B68CB
:103D64005B6903F48063B3F5806F1BD17B681B68C8
:103D74006FF480625A617B6800221A637B68202298
:103D840083F83D207B68002283F83E207B681B6C0F
:103D940043F004027B681A647B68002283F83C20A9
:103DA400012300E0002318460C37BD465DF8047B70
:103DB4007047000080B584B000AF786039607B68DC
:103DC400002B01D10123CCE0684B1B6803F00F03E7
:103DD4003A689A420CD9654B3A68D2B21A70634B6E
:103DE4001B6803F00F033A689A4201D00123B8E03C
:103DF4007B681B6803F00203002B20D07B681B68E0
:103E040003F00403002B05D0594B9B68584A43F434
:103E1400E05393607B681B6803F00803002B05D014
:103E2400534B9B68524A43F460439360504B9B68E6
:103E340023F0F0027B689B684D4913438B607B68D9
:103E44001B6803F00103002B44D07B685B68012BE3
:103E540007D1474B1B6803F40033002B19D101230E
:103E64007FE07B685B68022B03D07B685B68032B75
:103E740007D13F4B1B6803F00073002B09D10123CA
:103E84006FE03B4B1B6803F00203002B01D10123BD
:103E940067E0374B9B6823F003027B685B68344917
:103EA40013438B60FEF7BCFAF8600AE0FEF7B8FA39
:103EB4000246FB68D31A41F28832934201D90323A4
:103EC4004FE02B4B9B6803F00C027B685B689B0004
:103ED4009A42EBD1254B1B6803F00F033A689A42D0
:103EE4000CD2224B3A68D2B21A70204B1B6803F0F2
:103EF4000F033A689A4201D0012332E07B681B68C1
:103F040003F00403002B08D0194B9B6823F4E05200
:103F14007B68DB68164913438B607B681B6803F07E
:103F24000803002B09D0124B9B6823F460427B6882
:103F34001B69DB000E4913438B6000F041F8024615
:103F44000B4B9B681B0903F00F030A49CB5C22FA55
:103F540003F3094A1360094B1B681846FEF71CFA61
:103F6400002318461037BD4680BD00BF003C024008
:103F740000380240BC570008100000201400002044
:103F840080B400AF034B1B681846BD465DF8047B44
:103F9400704700BF1000002080B500AFFFF7F0FFAE
:103FA4000246054B9B689B0A03F007030349CB5C5D
:103FB40022FA03F3184680BD00380240CC570008AB
:103FC4002DE9B04FA6B000AF0023C7F88C30002312
:103FD400C7F894300023C7F888300023C7F884302A
:103FE4000023C7F89030C84B9B6803F00C030C2BDC
:103FF40000F27E8101A252F823F000BF3540000890
:10400400F5420008F5420008F54200083D4000086A
:10401400F5420008F5420008F54200084540000852
:10402400F5420008F5420008F5420008AF410008D7
:10403400B64BC7F890305FE1B54BC7F890305BE101
:10404400B14B5B6803F03F03C7F88C30AE4B5B6841
:1040540003F48003002B31D0AB4B5B689B09002237
:10406400BB66FA66BB6EC3F308033B6600237B663C
:10407400A74BD7E918452A4603FB02F20023214641
:1040840001FB03F31344A24A2146A1FB0212FA677F
:104094000A46BA67FA6F1344FB67D7F88C300022DC
:1040A400BB65FA65D7E91623D7E91E01FCF7C6FC00
:1040B40002460B461346C7F8943064E0924B5B68A3
:1040C4009B0900223B657A653B6DC3F30803BB641F
:1040D4000023FB64D7E9124522462B464FF000002B
:1040E4004FF00001590141EAD261500102460B46EA
:1040F4002146511A3961294663EB01037B614FF074
:1041040000024FF00003D7E904AB59468B01514636
:1041140043EA916351468A015146B2EB010859467C
:1041240063EB01094FF000024FF000034FEAC903AB
:1041340043EA58734FEAC80290469946234618EB5F
:104144000303BB602B4649EB0303FB604FF0000203
:104154004FF00003D7E9024529468B02214643EA82
:10416400915321468A0210461946D7F88C30002212
:104174003B647A64D7E91023FCF760FC02460B46E3
:104184001346C7F89430604B5B681B0C03F00303C1
:1041940001335B00C7F88830D7F89420D7F888300B
:1041A400B2FBF3F3C7F89030A6E0574B5B6803F01B
:1041B4003F03C7F88C30544B5B6803F48003002B37
:1041C4002AD0514B5B689B090022BB63FA63BB6B2B
:1041D400C3F3080000214E4B03FB01F2002300FB54
:1041E40003F313444A4AA0FB02127A670A463A6769
:1041F4007A6F13447B67D7F88C3000223B637A6371
:10420400D7E90C23D7E91C01FCF718FC02460B463E
:104214001346C7F894305BE03B4B5B689B09002274
:10422400BB62FA62BB6AC3F308033B6200237B628E
:10423400D7E9088942464B464FF000004FF0000191
:10424400590141EAD261500102460B464146B2EBA4
:10425400010A494663EB010B4FF000024FF00003E3
:104264004FEA8B1343EA9A634FEA8A12B2EB0A04C9
:1042740063EB0B054FF000024FF00003EB0043EA41
:104284005473E20014461D464346E3183B604B4614
:1042940045EB03037B604FF000024FF00003D7E9C6
:1042A400004529468B02214643EA915321468A025E
:1042B40010461946D7F88C300022BB61FA61D7E961
:1042C4000623FCF7BBFB02460B461346C7F89430A3
:1042D4000D4B5B681B0F03F00703C7F88430D7F856
:1042E4009420D7F88430B2FBF3F3C7F8903003E09E
:1042F400064BC7F8903000BFD7F89030184698376F
:10430400BD46BDE8B08F00BF003802400024F40071
:1043140040787D0180B586B000AF78607B68002B63
:1043240001D101238DE27B681B6803F00103002B9C
:1043340000F08380944B9B6803F00C03042B19D08A
:10434400914B9B6803F00C03082B06D18E4B5B68E2
:1043540003F48003B3F5800F0CD08B4B9B6803F000
:104364000C030C2B12D1884B5B6803F48003B3F568
:10437400800F0BD1844B1B6803F40033002B5BD0FC
:104384007B685B68002B57D101235AE27B685B682A
:10439400B3F5803F06D17C4B1B687B4A43F48033E2
:1043A40013601DE07B685B68B3F5A02F0CD1764BDE
:1043B4001B68754A43F480231360734B1B68724A6D
:1043C40043F4803313600BE06F4B1B686E4A23F495
:1043D400803313606C4B1B686B4A23F48023136097
:1043E4007B685B68002B13D0FEF71AF8386108E08D
:1043F400FEF716F802463B69D31A642B01D903234E
:104404001FE2614B1B6803F40033002BF0D014E06F
:10441400FEF706F8386108E0FEF702F802463B6949
:10442400D31A642B01D903230BE2574B1B6803F403
:104434000033002BF0D100E000BF7B681B6803F061
:104444000203002B6FD0504B9B6803F00C03002B2E
:1044540017D04D4B9B6803F00C03082B05D14A4B36
:104464005B6803F48003002B0BD0474B9B6803F07D
:104474000C030C2B1CD1444B5B6803F48003002B0E
:1044840016D1414B1B6803F00203002B05D07B6857
:10449400DB68012B01D00123D3E13B4B1B6823F0E4
:1044A400F8027B681B69DB00374913430B603AE071
:1044B4007B68DB68002B20D0344B01221A60FDF7A7
:1044C400AFFF386108E0FDF7ABFF02463B69D31A42
:1044D400022B01D90323B4E12B4B1B6803F0020325
:1044E400002BF0D0284B1B6823F0F8027B681B6973
:1044F400DB00254913430B6015E0244B00221A60AE
:10450400FDF78EFF386108E0FDF78AFF02463B693C
:10451400D31A022B01D9032393E11B4B1B6803F02D
:104524000203002BF0D17B681B6803F00803002B07
:1045340036D07B685B69002B16D0154B01221A60BC
:10454400FDF76EFF386108E0FDF76AFF02463B693C
:10455400D31A022B01D9032373E10B4B5B6F03F0D6
:104564000203002BF0D01BE0094B00221A60FDF778
:1045740057FF38610EE0FDF753FF02463B69D31A3B
:10458400022B07D903235CE10038024000004742B4
:10459400800E47428A4B5B6F03F00203002BEAD183
:1045A4007B681B6803F00403002B00F09780002352
:1045B400FB75834B1B6C03F08053002B0FD100233E
:1045C400BB607F4B1B6C7E4A43F0805313647C4B6F
:1045D4001B6C03F08053BB60BB680123FB75794BF4
:1045E4001B6803F48073002B18D1764B1B68754A43
:1045F40043F480731360FDF713FF386108E0FDF79F
:104604000FFF02463B69D31A022B01D9032318E199
:104614006C4B1B6803F48073002BF0D07B689B68A1
:10462400012B06D1664B1B6F654A43F001031367E8
:104634001CE07B689B68052B0CD1614B1B6F604AA7
:1046440043F0040313675E4B1B6F5D4A43F00103A1
:1046540013670BE05A4B1B6F594A23F0010313678E
:10466400574B1B6F564A23F0040313677B689B6800
:10467400002B15D0FDF7D4FE38610AE0FDF7D0FE1B
:1046840002463B69D31A41F28832934201D903238B
:10469400D7E04B4B1B6F03F00203002BEED014E06A
:1046A400FDF7BEFE38610AE0FDF7BAFE02463B693B
:1046B400D31A41F28832934201D90323C1E0404B1B
:1046C4001B6F03F00203002BEED1FB7D012B05D100
:1046D4003B4B1B6C3A4A23F0805313647B689B6901
:1046E400002B00F0AD80364B9B6803F00C03082BC5
:1046F40060D07B689B69022B45D1334B00221A6042
:10470400FDF78EFE386108E0FDF78AFE02463B693C
:10471400D31A022B01D9032393E0294B1B6803F01E
:104724000073002BF0D17B68DA697B681B6A1A433B
:104734007B685B6A9B011A437B689B6A5B08013B4D
:104744001B041A437B68DB6A1B061A437B681B6BDA
:104754001B071B4913434B601B4B01221A60FDF7D7
:104764005FFE386108E0FDF75BFE02463B69D31A41
:10477400022B01D9032364E0114B1B6803F000737F
:10478400002BF0D05CE0104B00221A60FDF748FECD
:10479400386108E0FDF744FE02463B69D31A022B58
:1047A40001D903234DE0064B1B6803F00073002B73
:1047B400F0D145E07B689B69012B07D1012340E0E0
:1047C4000038024000700040600047421F4B5B68A5
:1047D400FB607B689B69012B30D0FB6803F480028B
:1047E4007B68DB699A4229D1FB6803F03F027B684E
:1047F4001B6A9A4222D1FA6847F6C07313407A685A
:10480400526A9201934219D1FB6803F440327B68E7
:104814009B6A5B08013B1B049A420FD1FB6803F0BF
:1048240070627B68DB6A1B069A4207D1FB6803F05F
:10483400E0427B681B6B1B079A4201D0012300E016
:10484400002318461837BD4680BD00BF003802401B
:1048540080B582B000AF78607B68002B01D1012362
:1048640041E07B6893F83D30DBB2002B06D17B68D6
:10487400002283F83C207868FDF77EFC7B680222E6
:1048840083F83D207B681A687B6804331946104618
:1048940000F038FB7B68012283F846207B68012204
:1048A40083F83E207B68012283F83F207B68012245
:1048B40083F840207B68012283F841207B68012231
:1048C40083F842207B68012283F843207B6801221D
:1048D40083F844207B68012283F845207B68012209
:1048E40083F83D20002318460837BD4680BD0000EC
:1048F40080B485B000AF78607B6893F83D30DBB25C
:10490400012B01D0012346E07B68022283F83D207D
:104914007B681B68234A934222D07B681B68B3F1EF
:10492400804F1DD07B681B681F4A934218D07B6858
:104934001B681E4A934213D07B681B681C4A93422F
:104944000ED07B681B681B4A934209D07B681B68A6
:10495400194A934204D07B681B68184A934211D1C8
:104964007B681B689B6803F00703FB60FB68062BEE
:1049740010D07B681B681A687B681B6842F00102D0
:104984001A6007E07B681B681A687B681B6842F042
:1049940001021A60002318461437BD465DF8047BF3
:1049A400704700BF000001400004004000080040C0
:1049B400000C004000040140004001400018004089
:1049C40080B582B000AF78607B68002B01D10123F1
:1049D40041E07B6893F83D30DBB2002B06D17B6865
:1049E400002283F83C207868FDF7E8FB7B6802220C
:1049F40083F83D207B681A687B68043319461046A7
:104A040000F080FA7B68012283F846207B6801224B
:104A140083F83E207B68012283F83F207B680122D3
:104A240083F840207B68012283F841207B680122BF
:104A340083F842207B68012283F843207B680122AB
:104A440083F844207B68012283F845207B68012297
:104A540083F83D20002318460837BD4680BD00007A
:104A640080B584B000AF786039603B68002B09D111
:104A74007B6893F83E30DBB2012B14BF0123002383
:104A8400DBB222E03B68042B09D17B6893F83F300A
:104A9400DBB2012B14BF01230023DBB215E03B681A
:104AA400082B09D17B6893F84030DBB2012B14BF8B
:104AB40001230023DBB208E07B6893F84130DBB2CA
:104AC400012B14BF01230023DBB2002B01D00123EF
:104AD4007CE03B68002B04D17B68022283F83E20F3
:104AE40013E03B68042B04D17B68022283F83F2047
:104AF4000BE03B68082B04D17B68022283F840203A
:104B040003E07B68022283F841207B681B68012252
:104B14003968184600F0ECFC7B681B682D4A934208
:104B240004D07B681B682C4A934201D1012300E026
:104B34000023002B07D07B681B685A6C7B681B68BA
:104B440042F400425A647B681B68224A934222D092
:104B54007B681B68B3F1804F1DD07B681B681F4ABC
:104B6400934218D07B681B681D4A934213D07B681C
:104B74001B681C4A93420ED07B681B68164A9342FA
:104B840009D07B681B68184A934204D07B681B6871
:104B9400164A934211D17B681B689B6803F0070394
:104BA400FB60FB68062B10D07B681B681A687B6867
:104BB4001B6842F001021A6007E07B681B681A68F0
:104BC4007B681B6842F001021A6000231846103704
:104BD400BD4680BD000001400004014000040040C7
:104BE40000080040000C0040004001400018004054
:104BF40080B586B000AFF860B9607A600023FB75B9
:104C0400FB6893F83C30012B01D10223AEE0FB6832
:104C1400012283F83C207B680C2B00F29F8001A2C8
:104C240052F823F05D4C0008614D0008614D000806
:104C3400614D00089D4C0008614D0008614D00085D
:104C4400614D0008DF4C0008614D0008614D00080B
:104C5400614D00081F4D0008FB681B68B9681846C1
:104C640000F0FCF9FB681B689A69FB681B6842F05A
:104C740008029A61FB681B689A69FB681B6822F04A
:104C840004029A61FB681B689969BB681A69FB682E
:104C94001B680A439A6164E0FB681B68B96818469C
:104CA40000F04CFAFB681B689A69FB681B6842F4C5
:104CB40000629A61FB681B689A69FB681B6822F4AE
:104CC40080629A61FB681B689969BB681B691A0258
:104CD400FB681B680A439A6143E0FB681B68B96878
:104CE400184600F0A1FAFB681B68DA69FB681B68C8
:104CF40042F00802DA61FB681B68DA69FB681B682A
:104D040022F00402DA61FB681B68D969BB681A697E
:104D1400FB681B680A43DA6123E0FB681B68B96817
:104D2400184600F0F5FAFB681B68DA69FB681B6833
:104D340042F40062DA61FB681B68DA69FB681B688D
:104D440022F48062DA61FB681B68D969BB681B695D
:104D54001A02FB681B680A43DA6102E00123FB754F
:104D640000BFFB68002283F83C20FB7D18461837FF
:104D7400BD4680BD80B584B000AF78603960002343
:104D8400FB737B6893F83C30012B01D10223B4E020
:104D94007B68012283F83C207B68022283F83D2053
:104DA4007B681B689B68BB60BB6823F07703BB60B0
:104DB400BB6823F47F43BB607B681B68BA689A6056
:104DC4003B681B68B3F5005F3ED0B3F5005F00F2AB
:104DD4008780B3F5805F00F08680B3F5805F7FD86D
:104DE400702B1AD0702B7BD8602B50D0602B77D8C7
:104DF400502B3CD0502B73D8402B58D0402B6FD81D
:104E0400302B64D0302B6BD8202B60D0202B67D86C
:104E1400002B5CD0102B5AD062E07B6818683B688A
:104E240099683B685A683B68DB6800F041FB7B6823
:104E34001B689B68BB60BB6843F07703BB607B68FF
:104E44001B68BA689A604FE07B6818683B68996889
:104E54003B685A683B68DB6800F02AFB7B681B6888
:104E64009A687B681B6842F480429A603CE07B68E5
:104E740018683B6859683B68DB681A4600F09EFA7C
:104E84007B681B685021184600F0F7FA2CE07B6819
:104E940018683B6859683B68DB681A4600F0BDFA3D
:104EA4007B681B686021184600F0E7FA1CE07B6809
:104EB40018683B6859683B68DB681A4600F07EFA5C
:104EC4007B681B684021184600F0D7FA0CE07B6829
:104ED4001A683B681B681946104600F0CEFA03E0D6
:104EE4000123FB7300E000BF7B68012283F83D20AF
:104EF4007B68002283F83C20FB7B18461037BD46B4
:104F040080BD000080B485B000AF786039607B68F4
:104F14001B68FB607B68464A934213D07B68B3F1FD
:104F2400804F0FD07B68434A93420BD07B68424A40
:104F3400934207D07B68414A934203D07B68404A3E
:104F4400934208D1FB6823F07003FB603B685B6805
:104F5400FA681343FB607B68354A93422BD07B6825
:104F6400B3F1804F27D07B68324A934223D07B68C9
:104F7400314A93421FD07B68304A93421BD07B68EE
:104F84002F4A934217D07B682E4A934213D07B68F2
:104F94002D4A93420FD07B682C4A93420BD07B68F6
:104FA4002B4A934207D07B682A4A934203D07B68FA
:104FB400294A934208D1FB6823F44073FB603B68A1
:104FC400DB68FA681343FB60FB6823F080023B68EC
:104FD4005B691343FB607B68FA681A603B689A68F4
:104FE4007B68DA623B681A687B689A627B68104A5D
:104FF400934203D07B68124A934203D13B681A69F7
:105004007B681A637B6801225A617B681B6903F021
:105014000103012B05D17B681B6923F001027B6826
:105024001A6100BF1437BD465DF8047B704700BFAA
:10503400000001400004004000080040000C004053
:105044000004014000400140004401400048014088
:1050540000180040001C00400020004080B487B0CD
:1050640000AF786039607B681B6A7B617B681B6A70
:1050740023F001027B681A627B685B683B617B6892
:105084009B69FB60FB6823F07003FB60FB6823F003
:105094000303FB603B681B68FA681343FB607B698E
:1050A40023F002037B613B689B687A6913437B614D
:1050B4007B68204A934203D07B681F4A93420CD1F9
:1050C4007B6923F008037B613B68DB687A691343DF
:1050D4007B617B6923F004037B617B68154A9342FF
:1050E40003D07B68144A934211D13B6923F4807343
:1050F4003B613B6923F400733B613B685B693A693C
:1051040013433B613B689B693A6913433B617B688A
:105114003A695A607B68FA689A613B685A687B68A6
:105124005A637B687A691A6200BF1C37BD465DF812
:10513400047B7047000001400004014080B487B044
:1051440000AF786039607B681B6A7B617B681B6A8F
:1051540023F010027B681A627B685B683B617B68A2
:105164009B69FB60FB6823F4E043FB60FB6823F46A
:105174004073FB603B681B681B02FA681343FB60C7
:105184007B6923F020037B613B689B681B017A6980
:1051940013437B617B68224A934203D07B68214A94
:1051A40093420DD17B6923F080037B613B68DB680C
:1051B4001B017A6913437B617B6923F040037B61A4
:1051C4007B68174A934203D07B68164A934213D1F3
:1051D4003B6923F480633B613B6923F400633B61D7
:1051E4003B685B699B003A6913433B613B689B697D
:1051F4009B003A6913433B617B683A695A607B6858
:10520400FA689A613B685A687B689A637B687A6932
:105214001A6200BF1C37BD465DF8047B704700BFAF
:10522400000001400004014080B487B000AF786002
:1052340039607B681B6A7B617B681B6A23F480721C
:105244007B681A627B685B683B617B68DB69FB6037
:10525400FB6823F07003FB60FB6823F00303FB602F
:105264003B681B68FA681343FB607B6923F4007393
:105274007B613B689B681B027A6913437B617B6893
:10528400214A934203D07B68204A93420DD17B6923
:1052940023F400637B613B68DB681B027A69134378
:1052A4007B617B6923F480637B617B68164A93424C
:1052B40003D07B68154A934213D13B6923F480538E
:1052C4003B613B6923F400533B613B685B691B0111
:1052D4003A6913433B613B689B691B013A69134379
:1052E4003B617B683A695A607B68FA68DA613B68BB
:1052F4005A687B68DA637B687A691A6200BF1C3774
:10530400BD465DF8047B7047000001400004014085
:1053140080B487B000AF786039607B681B6A3B61FA
:105324007B681B6A23F480527B681A627B685B6823
:105334007B617B68DB69FB60FB6823F4E043FB6013
:10534400FB6823F44073FB603B681B681B02FA682C
:105354001343FB603B6923F400533B613B689B6848
:105364001B033A6913433B617B68124A934203D09F
:105374007B68114A934209D17B6923F480437B61A2
:105384003B685B699B017A6913437B617B687A693B
:105394005A607B68FA68DA613B685A687B681A6409
:1053A4007B683A691A6200BF1C37BD465DF8047B0E
:1053B400704700BF000001400004014080B487B082
:1053C40000AFF860B9607A60FB681B6A7B61FB68B8
:1053D4001B6A23F00102FB681A62FB689B693B614C
:1053E4003B6923F0F0033B617B681B013A6913437B
:1053F4003B617B6923F00A037B617A69BB681343D1
:105404007B61FB683A699A61FB687A691A6200BF3A
:105414001C37BD465DF8047B704780B487B000AF8D
:10542400F860B9607A60FB681B6A7B61FB681B6A81
:1054340023F01002FB681A62FB689B693B613B69BD
:1054440023F470433B617B681B033A6913433B615C
:105454007B6923F0A0037B61BB681B017A6913435A
:105464007B61FB683A699A61FB687A691A6200BFDA
:105474001C37BD465DF8047B704780B485B000AF2F
:10548400786039607B689B68FB60FB6823F070037D
:10549400FB603A68FB68134343F00703FB607B68D7
:1054A400FA689A6000BF1437BD465DF8047B704704
:1054B40080B487B000AFF860B9607A603B60FB6885
:1054C4009B687B617B6923F47F437B613B681A02A1
:1054D4007B681A43BB6813437A6913437B61FB6897
:1054E4007A699A6000BF1C37BD465DF8047B70473B
:1054F40080B487B000AFF860B9607A60BB6803F02D
:105504001F03012202FA03F37B61FB681A6A7B69B9
:10551400DB431A40FB681A62FB681A6ABB6803F033
:105524001F03796801FA03F31A43FB681A6200BF88
:105534001C37BD465DF8047B7047000080B485B01D
:1055440000AF786039607B6893F83C30012B01D15F
:1055540002235AE07B68012283F83C207B68022204
:1055640083F83D207B681B685B68FB607B681B6875
:105574009B68BB60FB6823F07003FB603B681B689F
:10558400FA681343FB607B681B68FA685A607B689F
:105594001B68214A934222D07B681B68B3F1804F79
:1055A4001DD07B681B681D4A934218D07B681B681A
:1055B4001B4A934213D07B681B681A4A93420ED04D
:1055C4007B681B68184A934209D07B681B68174A9A
:1055D400934204D07B681B68154A93420CD1BB6884
:1055E40023F08003BB603B685B68BA681343BB600D
:1055F4007B681B68BA689A607B68012283F83D2047
:105604007B68002283F83C20002318461437BD46EB
:105614005DF8047B704700BF0000014000040040B7
:1056240000080040000C004000040140004001401C
:1056340000180040931E222B10B50C4604D90023F9
:105644000B701C46204610BD0A2A09D1002807DA2F
:105654002D230B7040420121214400F005F8F1E7AD
:105664000021F9E7FFF7E6BFF0B51F4C8BB0054604
:105674000B466E4604F1200C20686168374603C768
:10568400083464453E46F7D121793971911E20686A
:10569400386022294FF0000104D919700B461846CE
:1056A4000BB0F0BD581E8446B5FBF2F702FB17564B
:1056B40028366E440C4616F8286C0CF8016F2E46FA
:1056C400B24201F101013D46EED900225A541919A2
:1056D400A51AAA42E3DA10F8015F0E7806700132C7
:1056E40001F80159F4E700BFD45700080244034607
:1056F400934200D1704703F8011BF9E770B50D4DD3
:105704000D4C641BA4100026A64209D10B4D0C4C71
:1057140000F018F8641BA4100026A64205D170BD41
:1057240055F8043B98470136EEE755F8043B984793
:105734000136F2E704580008045800080458000829
:1057440008580008F8B500BFF8BC08BC9E4670476E
:0C575400F8B500BFF8BC08BC9E467047CA
:105760000000000040000000140000005400000091
:1057700047415A204B41434147492056415200007E
:10578000484156412047554E45534C4900000000C2
:1057900048415641204B4150414C4900484F5347E6
:1057A000454C44494E205355484100002E2020438B
:1057B000000000002E202025000000000000000056
:1057C00000000000010203040607080900000000B1
:1057D00001020304303132333435363738396162EF
:1057E000636465666768696A6B6C6D6E6F70717211
:0C57F000737475767778797A00000000F9
:0857FC0074B2FF7F0100000000
:04580400E9010008AE
:04580800C5010008CE
:10580C0000191B060C1B13001818060908090600C2
:0C581C000024F400100000000100000057
:0400000508002305C7
:00000001FF
